:02000000FB29DA
:10000800FF00030E8301C1000A08BF008A017008BF
:10001800A1007108A000F0217008B9004A28013039
:1000280087068710043087060810762807100230E4
:1000380087060711013088067628071002308706E0
:1000480004308706081076280130870687100711C4
:100058000130880676280830880608127628881124
:10006800103088067628023088060811762888100D
:1000780004308806762820308806081376288812E7
:100088004030880676288030880676283908773AFE
:10009800031913283908733A03191A283908613AD9
:1000A800031921283908643A031928283908693AB4
:1000B80003192F2839086B3A0319332839086C3A81
:1000C8000319372839086A3A03193B2839086D3A61
:1000D80003193F2839086E3A031943283908723A38
:1000E800031947280130A2000030A3002108F000BE
:1000F8002008F1003F088A00410E8300FF0E7F0EA2
:020108000900EC
:10010A00103083120313FD00FD0B8928000008003C
:04011A0000000800D9
:10011E00083083120313FC002330FD00FD0B9528DD
:06012E00FC0B95280800FF
:1001340083120313C71BA0280611A1280615471B09
:10014400A5288611A6288615C71AAA280612AB2840
:100154000616471AAF288612B02886164018B42807
:100164008617B528861306178D200613C719BC28D1
:100174000611BD2806154719C1288611C2288615FF
:10018400C718C6280612C72806164718CB28861291
:10019400CC2886164018D0288617D128861306172F
:1001A4008D200613401CD8288F20D92885200800CC
:1001B4008312031340104608C7009A204014080015
:1001C400831603139818E8280000E22883124608CF
:0401D4009900080086
:0E01D800831203133E088A003D0882000800CF
:0E01E600073083120313FD00FD0BF7280800FD
:1001F4000C29803083120313C2001F29C030C200AF
:100204001F299430C2001F29D430C2001F29803016
:10021400C2001F29831203134208013A0319FB2861
:100224004208023A031900294208033A0319032930
:100234004208043A0319062909294303F000420835
:10024400F0077008C2007008C7009A204010C5016A
:100254004508440784000008031938294508440761
:1002640084000008C600DA20C50A2A2940140800C0
:10027400FF3083120313BA00FF30BB00FF30BC0011
:10028400FF309F01C0309F0483161F179F178312EE
:040294001F1408002B
:10029800831203139F01C0309F0483161F179F17F3
:1002A80083124208F000F00D7010F00D7010F00D80
:1002B800701070089F041F14F3201F151F1D662956
:1002C800000062291F101E08F100F00183161E08A5
:0802D800F0040030F1040800FD
:1002E00083120313C401420884000008C3004308BA
:1002F000003A031985294308C600E220C40A4408CD
:0C030000420784000008C30077290800B1
:10030C008316031398169030831298008316871760
:10031C00071383128C1E95291A08F0008F290800E8
:10032C008316031306138613861206128611061102
:10033C0083120613861306118611061286128F205D
:10034C008F208F200616861606178D2006138F20F9
:10035C0006178D2006138F2006178D2006138F206D
:10036C00861206178D2006138F2006178D20061374
:10037C000612061506178D2006138F2006118616F9
:10038C0006178D200613861206178D2006138F2054
:10039C0006178D200613861606178D2006138F2040
:1003AC00861206178D200613061586150616861658
:0C03BC0006178D2006138F204014080047
:1003C800EC208A110A128000840ABD0A0319BE0AA9
:0803D800F003031DE4290800F5
:1003E000831203131A08F100981CF8291812181622
:0603F0007108F000080096
:1003F60083120313A201A3014D30A4006530A500AA
:100406007430A6006130A7006C30A800A9016D30D9
:10041600AA006530AB007430AC006130AD006C30C2
:10042600AE002030AF006430B0006530B1007430EB
:10043600B2006530B3006330B4007430B500653087
:10044600B6006430B700B8019621C0308B0020306A
:1004560083168C0019309900181586210230FB008E
:100466008630FC009930FD00FD0B372AFC0B372A3D
:10047600FB0B372A3A2183168801803087008312C6
:10048600880187010130C2004C2170088312A20046
:100496007108A3008030F200803071067202031DDD
:1004A600562A7008643C0318732A0130C2000130D2
:1004B600C3002A30C400FA200630FB001330FC00CB
:1004C600AD30FD00FD0B652AFC0B652AFB0B652A8A
:1004D600000000002430C20070210130C7009A20BD
:1004E60000302306031D792A01302206031D802AC7
:0E04F6003908C600DA20A201A301452A812A96
:02400E004A2F37
:00000001FF
